:100000000C9472000C9493000C9493000C94930045
:100010000C9493000C9493000C9493000C94930014
:100020000C9493000C9493000C9493000C94930004
:100030000C9493000C9493000C9493000C949300F4
:100040000C9493000C9493000C9493000C949300E4
:100050000C9493000C9493000C9493000C949300D4
:100060000C9493000C9493000C9493000C949300C4
:100070000C9493000C9493000C9493000C949300B4
:100080000C9470010C9493000C9493000C949300C6
:100090000C9417010C9493000C9493000C9493000F
:1000A0000C9493000C9493000C9493000C94930084
:1000B0000C9493000C9493000C9493000C94930074
:1000C0000C9493000C9493000C9493000C94930064
:1000D0000C9493000C9493000C9493000C94930054
:1000E0000C94930011241FBECFEFD1E2DEBFCDBF31
:1000F00000E00CBF12E0A0E0B2E0E2E1F5E000E0D9
:100100000BBF02C007900D92A430B107D9F722E0CF
:10011000A4E0B2E001C01D92A830B207E1F70E944E
:1001200037020C9487020C94000010929000E1E9D1
:10013000F0E01082109292002081256020832081BF
:100140002860208322E0209371002AE136E0AC0190
:10015000429FC001439F900D529F900D1124909398
:1001600099008093980008951092C50087E68093C7
:10017000C400E1ECF0E088E18083808180688083C6
:1001800086E08093C20008959C01990F440B550BA3
:1001900060E472E48FE090E00E9465022150310932
:1001A0003093CD002093CC00E9ECF0E088E180832F
:1001B00080818068808386E08093CA007894089567
:1001C0009091C80095FFFCCF8093CE008091C8002D
:1001D00086FFFCCF08958091C00087FF03C0809107
:1001E000C60008958FEF08959091C00095FFFCCF51
:1001F0008093C6008091C00086FFFCCF0895CF9306
:10020000DF93EC018991882319F00E94F400FACF62
:10021000DF91CF910895CF93DF93EC0189918823EB
:1002200019F00E94E000FACFDF91CF9108951F925C
:100230000F920FB60F9211240F900FBE0F901F90C8
:100240001895CF93DF93C82FD62F86E20E94E00047
:1002500088E70E94E0008D2F0E94E00086E20E9465
:10026000E00082E70E94E00080E00E94E00081E080
:100270000E94E0008CE10E94E00088E20E94E00021
:100280008C2FDF91CF910C94E000FF920F931F937E
:10029000CF93DF938C01EB01F42E86E20E94E00005
:1002A00082E70E94E000802F0E94E0008C2F0E94D5
:1002B000E00081E00E94E00081E00E94E0008F2DDC
:1002C0000E94E0001093050200930402D0930702FD
:1002D000C0930602DF91CF911F910F91FF90089577
:1002E0001F920F920FB60F9211240BB60F922F93FD
:1002F0003F934F935F936F937F938F939F93AF93AE
:10030000BF93EF93FF93809104029091050287972A
:1003100029F410920302109202020CC08091040290
:1003200090910502892B31F481E090E090930302D3
:100330008093020280910602909107024C9739F453
:1003400081E090E090930102809300020AC08091C6
:10035000060290910702019721F410920102109277
:100360000002609106027091070280910402909150
:10037000050247E050E00E94450180910202909101
:100380000302019731F480910402909105020196D5
:100390000BC08091020290910302892B49F4809155
:1003A0000402909105020197909305028093040244
:1003B0008091000290910102892B31F48091060214
:1003C0009091070201960BC080910002909101026A
:1003D000019749F48091060290910702019790934A
:1003E00007028093060260910602709107028091D5
:1003F00004029091050240E050E00E944501FF9107
:10040000EF91BF91AF919F918F917F916F915F918C
:100410004F913F912F910F900BBE0F900FBE0F90F9
:100420001F9018950F931F93CF93DF93062F142FD0
:10043000D22F019711F0C6E201C0C1E086E20E940E
:10044000E00082E70E94E0008C2F0E94E000802FF5
:100450000E94E000812F0E94E0008D2F0E94E000AA
:1004600084E0DF91CF911F910F910C94E0000E94E6
:10047000B40080E895E20E94C40064E070E087E088
:1004800090E00E94210140E050E068E070E083E0ED
:1004900090E00E94450121E030E045E050E06DE051
:1004A00070E081E090E00E94120221E030E045E03F
:1004B00050E06DE070E082E090E00E94120281E086
:1004C00090E00E9495007894FFCFA1E21A2EAA1B1B
:1004D000BB1BFD010DC0AA1FBB1FEE1FFF1FA217F4
:1004E000B307E407F50720F0A21BB30BE40BF50BF1
:1004F000661F771F881F991F1A9469F7609570957A
:10050000809590959B01AC01BD01CF010895F894B1
:02051000FFCF1B
:0405120001000100E3
:00000001FF
