:100000000C9472000C9493000C9493000C94930045
:100010000C9493000C9493000C9493000C94930014
:100020000C9493000C9493000C9493000C94930004
:100030000C9493000C9493000C9493000C949300F4
:100040000C9493000C9493000C9493000C949300E4
:100050000C9493000C9493000C9493000C949300D4
:100060000C9493000C9493000C9493000C949300C4
:100070000C9493000C9493000C9493000C949300B4
:100080000C94B9010C9493000C9493000C9493007D
:100090000C9417010C9493000C9493000C9493000F
:1000A0000C9493000C9493000C9493000C94930084
:1000B0000C9493000C9493000C9493000C94930074
:1000C0000C9493000C9493000C9493000C94930064
:1000D0000C9493000C9493000C9493000C94930054
:1000E0000C94930011241FBECFEFD1E2DEBFCDBF31
:1000F00000E00CBF12E0A0E0B2E0EEE5F7E000E0C7
:100100000BBF02C007900D92A430B107D9F722E0CF
:10011000A4E0B2E001C01D92A532B207E1F70E944F
:100120005D030C94AD030C94000010929000E1E983
:10013000F0E01082109292002081256020832081BF
:100140002860208322E0209371002AE136E0AC0190
:10015000429FC001439F900D529F900D1124909398
:1001600099008093980008951092C50087E68093C7
:10017000C400E1ECF0E088E18083808180688083C6
:1001800086E08093C20008959C01990F440B550BA3
:1001900060E472E48FE090E00E948B03215031090B
:1001A0003093CD002093CC00E9ECF0E088E180832F
:1001B00080818068808386E08093CA007894089567
:1001C0009091C80095FFFCCF8093CE008091C8002D
:1001D00086FFFCCF08958091C00087FF03C0809107
:1001E000C60008958FEF08959091C00095FFFCCF51
:1001F0008093C6008091C00086FFFCCF0895CF9306
:10020000DF93EC018991882319F00E94F400FACF62
:10021000DF91CF910895CF93DF93EC0189918823EB
:1002200019F00E94E000FACFDF91CF9108951F925C
:100230000F920FB60F9211240BB60F922F933F938C
:100240008F939F93EF93FF938091CE00843529F491
:10025000109209021092080230C080910802909119
:1002600009029C012F5F3F4F30930902209308023F
:100270002091CE00FC01EE5DFD4F208380910802AD
:10028000909109020397C9F42091230280912402DE
:10029000237090E0922B9093070280930602809146
:1002A0002202209123028F7090E0982F88272C7FC4
:1002B000822B9093050280930402FF91EF919F910E
:1002C0008F913F912F910F900BBE0F900FBE0F900B
:1002D0001F901895CF93DF93C82FD62F86E20E94E8
:1002E000E00088E70E94E0008D2F0E94E00086E297
:1002F0000E94E00082E70E94E00080E00E94E000AF
:1003000081E00E94E0008CE10E94E00088E20E940F
:10031000E0008C2FDF91CF910C94E000FF920F93BF
:100320001F93CF93DF938C01EB01F42E86E20E94A2
:10033000E00082E70E94E000802F0E94E0008C2F06
:100340000E94E00081E00E94E00081E00E94E00065
:100350008F2D0E94E00010930D0200930C02D093A9
:100360000B02C0930A02DF91CF911F910F91FF9072
:1003700008951F920F920FB60F9211240BB60F9291
:100380002F933F934F935F936F937F938F939F939D
:10039000AF93BF93EF93FF9380910C0290910D0266
:1003A000879721F480E090E00E94AD0380910C02D9
:1003B00090910D02859761F42091180230911902F5
:1003C00080910A0290910B022817390709F444C062
:1003D00080910C0290910D02859759F420911A0298
:1003E00030911B0280910A0290910B022817390765
:1003F00099F180910C0290910D02859759F420910A
:100400001C0230911D0280910A0290910B02281764
:10041000390711F180910C0290910D02859759F4E2
:1004200020911E0230911F0280910A0290910B02CE
:100430002817390789F080910C0290910D02859759
:1004400081F4209120023091210280910A02909142
:100450000B022817390729F41092030210920202A6
:1004600063C080910C0290910D02892B09F49ACF00
:1004700080910C0290910D02029761F420910E027E
:1004800030910F0280910A0290910B0228173907D0
:1004900009F444C080910C0290910D02029759F426
:1004A000209110023091110280910A0290910B026A
:1004B0002817390799F180910C0290910D0202974B
:1004C00059F4209112023091130280910A02909106
:1004D0000B022817390711F180910C0290910D023F
:1004E000029759F4209114023091150280910A026A
:1004F00090910B022817390789F080910C02909196
:100500000D02029789F42091160230911702809112
:100510000A0290910B022817390731F481E090E02C
:10052000909303028093020280910A0290910B0241
:100530004C9739F481E090E090930102809300029F
:100540000AC080910A0290910B02019721F4109247
:1005500001021092000260910A0270910B028091D8
:100560000C0290910D0247E050E00E948E018091B4
:10057000020290910302019731F480910C02909154
:100580000D0201960BC08091020290910302892B0B
:1005900049F480910C0290910D02019790930D0205
:1005A00080930C028091000290910102892B31F41A
:1005B00080910A0290910B0201960BC0809100027B
:1005C00090910102019749F480910A0290910B02E7
:1005D000019790930B0280930A0260910A02709136
:1005E0000B0280910C0290910D0240E050E00E94BD
:1005F0008E01FF91EF91BF91AF919F918F917F916C
:100600006F915F914F913F912F910F900BBE0F9083
:100610000FBE0F901F901895DF92EF92FF920F93ED
:100620001F93CF93DF938C01EB01D42EE22E019721
:1006300019F066E2F62E02C0FF24F39486E20E94CF
:10064000E00082E70E94E0008F2D0E94E0008C2FE6
:100650000E94E0008D2D0E94E0008E2D0E94E0009F
:1006600084E00E94E00080E090E00130110579F420
:100670009C012C0F3D1FFC01EE0FFF1FE25FFD4FA1
:100680003183208301968530910591F70EC09C013E
:100690002C0F3D1FFC01EE0FFF1FE85EFD4F318365
:1006A000208301968530910591F7DF91CF911F91BD
:1006B0000F91FF90EF90DF9008950E94B40080E8C2
:1006C00095E20E94C40064E070E087E090E00E9440
:1006D0006A0140E050E068E070E080E190E00E9454
:1006E0008E0121E030E045E050E065E070E081E01F
:1006F00090E00E940C0321E030E045E050E06DE026
:1007000070E082E090E00E940C0381E090E00E94A3
:1007100095007894FFCFA1E21A2EAA1BBB1BFD0106
:100720000DC0AA1FBB1FEE1FFF1FA217B307E407D0
:10073000F50720F0A21BB30BE40BF50B661F771F28
:10074000881F991F1A9469F7609570958095909508
:0E0750009B01AC01BD01CF010895F894FFCFCD
:04075E000100010095
:00000001FF
