:100000000C9472000C9493000C9493000C94930045
:100010000C9493000C9493000C9493000C94930014
:100020000C9493000C9493000C9493000C94930004
:100030000C9493000C9493000C9493000C949300F4
:100040000C9493000C9493000C9493000C949300E4
:100050000C9493000C9493000C9493000C949300D4
:100060000C9493000C9493000C9493000C949300C4
:100070000C9493000C9493000C9493000C949300B4
:100080000C9475030C9493000C9493000C949300BF
:100090000C9417010C9493000C9493000C9493000F
:1000A0000C9493000C9493000C9493000C94930084
:1000B0000C9493000C9493000C9493000C94930074
:1000C0000C9493000C9493000C9493000C94930064
:1000D0000C9493000C9493000C9493000C94930054
:1000E0000C94930011241FBECFEFD1E2DEBFCDBF31
:1000F00000E00CBF12E0A0E0B2E0E0EEFCE000E0C7
:100100000BBF02C007900D92A830B107D9F722E0CB
:10011000A8E0B2E001C01D92A733B207E1F70E9448
:10012000E5050C946E060C94000010929000E1E935
:10013000F0E01082109292002081256020832081BF
:100140002860208322E0209371002AE136E0AC0190
:10015000429FC001439F900D529F900D1124909398
:1001600099008093980008951092C50087E68093C7
:10017000C400E1ECF0E088E18083808180688083C6
:1001800086E08093C20008959C01990F440B550BA3
:1001900060E472E48FE090E00E944C062150310947
:1001A0003093CD002093CC00E9ECF0E088E180832F
:1001B00080818068808386E08093CA007894089567
:1001C0009091C80095FFFCCF8093CE008091C8002D
:1001D00086FFFCCF08958091C00087FF03C0809107
:1001E000C60008958FEF08959091C00095FFFCCF51
:1001F0008093C6008091C00086FFFCCF0895CF9306
:10020000DF93EC018991882319F00E94F400FACF62
:10021000DF91CF910895CF93DF93EC0189918823EB
:1002200019F00E94E000FACFDF91CF9108951F925C
:100230000F920FB60F9211240BB60F922F933F938C
:100240004F935F936F937F938F939F93AF93BF93DE
:10025000EF93FF938091CE00843529F4109217021A
:100260001092160255C080911602909117029C01BF
:100270002F5F3F4F30931702209316022091CE003C
:10028000FC01EC5CFD4F20838091160290911702D7
:100290000397F1F52091350280913602237090E0AA
:1002A000922B909315028093140280913402209136
:1002B00035028F7030E4839FC00111242695269566
:1002C000822B90931302809312022091140230919A
:1002D00015024EE1429FC001439F900D11242FEF64
:1002E00033E0B9010E943806709311026093100246
:1002F0006091120270911302469FC001479F900DBA
:100300001124B9010E94380670930D0260930C020B
:10031000FF91EF91BF91AF919F918F917F916F91DD
:100320005F914F913F912F910F900BBE0F900FBE99
:100330000F901F901895CF93DF93C82FD62F86E28A
:100340000E94E00088E70E94E0008D2F0E94E000FC
:1003500086E20E94E00082E70E94E00080E00E94C6
:10036000E00081E00E94E0008CE10E94E00088E271
:100370000E94E0008C2FDF91CF910C94E000FF925F
:100380000F931F93CF93DF938C01EB01F42E86E242
:100390000E94E00082E70E94E000802F0E94E000BF
:1003A0008C2F0E94E00081E00E94E00081E00E942A
:1003B000E0008F2D0E94E00010931F0200931E02A8
:1003C000D0931D02C0931C02DF91CF911F910F911A
:1003D000FF900895DF92EF92FF920F931F93CF93B8
:1003E000DF938C01EB01D42EE22E019719F066E227
:1003F000F62E02C0FF24F39486E20E94E00082E71A
:100400000E94E0008F2D0E94E0008C2F0E94E000EF
:100410008D2D0E94E0008E2D0E94E00084E00E945D
:10042000E00080E090E00130110579F49C012C0F90
:100430003D1FFC01EE0FFF1FE05EFD4F3183208367
:1004400001968530910591F70EC09C012C0F3D1F40
:10045000FC01EE0FFF1FE65DFD4F31832083019607
:100460008530910591F7DF91CF911F910F91FF900A
:10047000EF90DF900895CF93019711F4C1E001C090
:10048000C6E286E20E94E00082E70E94E0008C2F34
:100490000E94E00081E00E94E0008CE10E94E00008
:1004A00081E00E94E00087E0CF910C94E0001F9370
:1004B000CF93DF93182FD62FC42F86E20E94E0003F
:1004C00082E70E94E000812F0E94E0008D2F0E94B1
:1004D000E00081E00E94E00081E00E94E0008C2FBB
:1004E000DF91CF911F910C94E00049E050E06CE067
:1004F00070E08BE090E00E94570249E050E06DE030
:1005000070E08BE090E00E94570249E050E06EE01E
:1005100070E08BE090E00E94570249E050E06FE00D
:1005200070E08BE090E00E94570249E050E060E10B
:1005300070E08BE090E00E94570249E050E061E1FA
:1005400070E08BE090E00E94570249E050E06CE0E0
:1005500070E08CE090E00E94570249E050E06CE0CF
:1005600070E08DE090E00E94570249E050E06EE0BC
:1005700070E08CE090E00E94570249E050E06CE0AF
:1005800070E080E190E00E94570249E050E06DE0A9
:1005900070E080E190E00E94570249E050E06EE098
:1005A00070E080E190E00E94570249E050E06FE087
:1005B00070E080E190E00E94570249E050E060E185
:1005C00070E080E190E00E94570249E050E061E174
:1005D00070E080E190E00E94570249E050E06CE05A
:1005E00070E083E190E00E94570249E050E06DE046
:1005F00070E083E190E00E94570249E050E06EE035
:1006000070E083E190E00E94570249E050E06FE023
:1006100070E083E190E00E94570249E050E060E121
:1006200070E083E190E00E94570249E050E061E110
:1006300070E083E190E00E94570249E050E06CE0F6
:1006400070E084E190E00E94570249E050E06CE0E5
:1006500070E085E190E00E94570249E050E06DE0D3
:1006600070E085E190E00E94570249E050E06EE0C2
:1006700070E085E190E00E94570249E050E06CE0B4
:1006800070E086E190E00E94570249E050E06CE0A3
:1006900070E087E190E00E94570249E050E06DE091
:1006A00070E087E190E00E94570249E050E06EE080
:1006B00070E087E190E00E94570249E050E06FE06F
:1006C00070E087E190E00E94570249E050E060E16D
:1006D00070E087E190E00E94570249E050E061E15C
:1006E00070E087E190E00C9457021F920F920FB6D2
:1006F0000F9211240BB60F922F933F934F935F935A
:100700006F937F938F939F93AF93BF93EF93FF93D9
:1007100080911E0290911F02879789F580911A029D
:1007200090911B02019690931B0280931A02809174
:100730001A0290911B028230910579F08330910565
:10074000A9F0019709F02BC14091060250910702D0
:1007500060E070E080E090E092C04091060250912D
:10076000070260E070E082E090E089C040910602FC
:100770005091070260E070E084E090E0ACC08091AE
:100780001E0290911F02859761F420912A023091F8
:100790002B0280911C0290911D022817390709F441
:1007A00044C080911E0290911F02859759F42091B8
:1007B0002C0230912D0280911C0290911D0228176D
:1007C000390799F180911E0290911F02859759F483
:1007D00020912E0230912F0280911C0290911D02D7
:1007E0002817390711F180911E0290911F028597F9
:1007F00059F4209130023091310280911C02909185
:100800001D022817390789F080911E0290911F025E
:10081000859781F4209132023091330280911C023D
:1008200090911D022817390729F4109205021092A1
:100830000402B5C080911E0290911F02892B09F01D
:1008400052C080911802909119020196909319025A
:1008500080931802809118029091190282309105BC
:1008600049F18330910579F1019709F098C04091E1
:1008700006025091070260E070E087E290E00E947B
:10088000570260911C0270911D0280911E0290918E
:100890001F0247E050E00E94BF0185E190E0909385
:1008A0001F0280931E028EE090E090931D028093C1
:1008B0001C0275C0409106025091070260E070E092
:1008C00085E290E0DCCF409106025091070260E0A3
:1008D00070E083E290E00E9457020E94750280E07F
:1008E00090E00E946E0680911E0290911F02029776
:1008F00061F4209120023091210280911C0290919C
:100900001D022817390709F444C080911E029091F6
:100910001F02029759F42091220230912302809104
:100920001C0290911D022817390799F180911E022F
:1009300090911F02029759F42091240230912502D0
:1009400080911C0290911D022817390711F18091A6
:100950001E0290911F02029759F4209126023091B5
:10096000270280911C0290911D022817390789F0F7
:1009700080911E0290911F02029789F42091280213
:100980003091290280911C0290911D02281739078D
:1009900031F481E090E0909305028093040280910D
:1009A0001C0290911D024C9739F481E090E09093E5
:1009B0000302809302020AC080911C0290911D02E2
:1009C000019721F4109203021092020260911C021E
:1009D00070911D0280911E0290911F0247E050E02D
:1009E0000E94BF018091040290910502019731F4A9
:1009F00080911E0290911F0201960BC0809104020B
:100A000090910502892B49F480911E0290911F025A
:100A1000019790931F0280931E0280910202909191
:100A20000302892B31F480911C0290911D020196E2
:100A30000BC08091020290910302019749F48091CA
:100A40001C0290911D02019790931D0280931C023D
:100A500060911C0270911D0280911E0290911F02F4
:100A600040E050E00E94BF0180910002909101029D
:100A70002091100230911102892B09F044C080911D
:100A80000E0290910F022817390761F420910C0291
:100A900030910D0280910A0290910B0228173907BC
:100AA00009F480C081E090E00E943B0282E090E087
:100AB0000E943B02609110027091110221E030E02F
:100AC00045E050E081E090E00E94EA0160910C0274
:100AD00070910D0221E030E045E050E082E090E0CE
:100AE0000E94EA01809110029091110290930F02EE
:100AF00080930E0280910C0290910D0290930B0254
:100B000080930A024FC080910E0290910F02281725
:100B10003907C1F081E090E00E943B026091100231
:100B20007091110221E030E045E050E081E090E07A
:100B30000E94EA01809110029091110290930F029D
:100B400080930E02809108029091090220911C026C
:100B500030911D0202968217930761F0809108027E
:100B60009091090220911C0230911D020297821778
:100B70009307C1F480911C0290911D029093090289
:100B80008093080282E090E00E943B02609108029C
:100B90007091090221E030E045E050E082E090E011
:100BA0000E94EA01FF91EF91BF91AF919F918F91C8
:100BB0007F916F915F914F913F912F910F900BBE5D
:100BC0000F900FBE0F901F9018950E94B40080E800
:100BD00095E20E94C40064E070E087E090E00E942B
:100BE0009B0140E050E068E070E084E190E00E940A
:100BF000BF01609110027091110221E030E045E0E8
:100C000050E081E090E00E94EA0180911002909112
:100C1000110290930F0280930E0260910C0270916A
:100C20000D0221E030E045E050E082E090E00E94DB
:100C3000EA0180910C0290910D0290930B02809337
:100C40000A0281E090E00E9495007894809114025D
:100C5000909115020A9728F4109201021092000256
:100C600006C081E090E09093010280930002FFCFE4
:100C7000AA1BBB1B51E107C0AA1FBB1FA617B707C2
:100C800010F0A61BB70B881F991F5A95A9F78095DE
:100C90009095BC01CD010895A1E21A2EAA1BBB1BA1
:100CA000FD010DC0AA1FBB1FEE1FFF1FA217B30738
:100CB000E407F50720F0A21BB30BE40BF50B661F4E
:100CC000771F881F991F1A9469F760957095809512
:100CD00090959B01AC01BD01CF010895F894FFCF21
:080CE000010001000100090000
:00000001FF
