:100000000C9472000C9493000C9493000C94930045
:100010000C9493000C9493000C9493000C94930014
:100020000C9493000C9493000C9493000C94930004
:100030000C9493000C9493000C9493000C949300F4
:100040000C9493000C9493000C9493000C949300E4
:100050000C9493000C9493000C9493000C949300D4
:100060000C9493000C9493000C9493000C949300C4
:100070000C9493000C9493000C9493000C949300B4
:100080000C94A1020C9493000C9493000C94930094
:100090000C9417010C9493000C9493000C9493000F
:1000A0000C9493000C9493000C9493000C94930084
:1000B0000C9493000C9493000C9493000C94930074
:1000C0000C9493000C9493000C9493000C94930064
:1000D0000C9493000C9493000C9493000C94930054
:1000E0000C94930011241FBECFEFD1E2DEBFCDBF31
:1000F00000E00CBF12E0A0E0B2E0E6E5F9E000E0CD
:100100000BBF02C007900D92A430B107D9F722E0CF
:10011000A4E0B2E001C01D92AD32B207E1F70E9447
:1001200031040C94A9040C94000010929000E1E9B1
:10013000F0E01082109292002081256020832081BF
:100140002860208322E0209371002AE136E0AC0190
:10015000429FC001439F900D529F900D1124909398
:1001600099008093980008951092C50087E68093C7
:10017000C400E1ECF0E088E18083808180688083C6
:1001800086E08093C20008959C01990F440B550BA3
:1001900060E472E48FE090E00E948704215031090E
:1001A0003093CD002093CC00E9ECF0E088E180832F
:1001B00080818068808386E08093CA007894089567
:1001C0009091C80095FFFCCF8093CE008091C8002D
:1001D00086FFFCCF08958091C00087FF03C0809107
:1001E000C60008958FEF08959091C00095FFFCCF51
:1001F0008093C6008091C00086FFFCCF0895CF9306
:10020000DF93EC018991882319F00E94F400FACF62
:10021000DF91CF910895CF93DF93EC0189918823EB
:1002200019F00E94E000FACFDF91CF9108951F925C
:100230000F920FB60F9211240BB60F922F933F938C
:100240004F935F936F937F938F939F93AF93BF93DE
:10025000EF93FF938091CE00843529F41092110220
:100260001092100255C080911002909111029C01D1
:100270002F5F3F4F30931102209310022091CE0048
:10028000FC01E65DFD4F20838091100290911102E8
:100290000397F1F520912B0280912C02237090E0BE
:1002A000922B90930F0280930E0280912A0220914C
:1002B0002B028F7030E4839FC00111242695269570
:1002C000822B90930D0280930C0220910E023091AC
:1002D0000F024EE1429FC001439F900D11242FEF6A
:1002E00033E0B9010E94730470930B0260930A0219
:1002F00060910C0270910D02469FC001479F900DC6
:100300001124B9010E9473047093070260930602DE
:10031000FF91EF91BF91AF919F918F917F916F91DD
:100320005F914F913F912F910F900BBE0F900FBE99
:100330000F901F901895CF93DF93C82FD62F86E28A
:100340000E94E00088E70E94E0008D2F0E94E000FC
:1003500086E20E94E00082E70E94E00080E00E94C6
:10036000E00081E00E94E0008CE10E94E00088E271
:100370000E94E0008C2FDF91CF910C94E000FF925F
:100380000F931F93CF93DF938C01EB01F42E86E242
:100390000E94E00082E70E94E000802F0E94E000BF
:1003A0008C2F0E94E00081E00E94E00081E00E942A
:1003B000E0008F2D0E94E0001093150200931402BC
:1003C000D0931302C0931202DF91CF911F910F912E
:1003D000FF900895DF92EF92FF920F931F93CF93B8
:1003E000DF938C01EB01D42EE22E019719F066E227
:1003F000F62E02C0FF24F39486E20E94E00082E71A
:100400000E94E0008F2D0E94E0008C2F0E94E000EF
:100410008D2D0E94E0008E2D0E94E00084E00E945D
:10042000E00080E090E00130110579F49E01280F92
:10043000391FFC01EE0FFF1FEA5EFD4F3183208361
:1004400001968530910591F70EC09C012C0F3D1F40
:10045000FC01EE0FFF1FE05EFD4F3183208301960C
:100460008530910591F7DF91CF911F910F91FF900A
:10047000EF90DF900895DF92EF92FF920F931F931A
:10048000CF93DF938C01EB01D42EE22E019719F06C
:1004900066E2F62E02C0FF24F39486E20E94E0009A
:1004A00082E70E94E0008F2D0E94E0008C2F0E94C6
:1004B000E0008D2D0E94E0008E2D0E94E00084E07F
:1004C0000E94E00080E090E00130110579F49C0189
:1004D0002C0F3D1FFC01EE0FFF1FEA5EFD4F318325
:1004E000208301968530910591F70EC09C012C0F59
:1004F0003D1FFC01EE0FFF1FE05EFD4F31832083A7
:1005000001968530910591F7DF91CF911F910F9161
:10051000FF90EF90DF90089586E20E94E00082E76E
:100520000E94E00081E00E94E00081E00E94E00083
:1005300086E20E94E00081E00E94E00087E00C94E7
:10054000E0001F920F920FB60F9211240BB60F927C
:100550002F933F934F935F936F937F938F939F93CB
:10056000AF93BF93EF93FF93809114029091150284
:10057000879709F4BEC08091140290911502859767
:1005800061F4209120023091210280911202909119
:1005900013022817390709F444C08091140290917E
:1005A0001502859759F420912202309123028091FF
:1005B0001202909113022817390799F180911402C1
:1005C00090911502859759F42091240230912502CB
:1005D00080911202909113022817390711F180912E
:1005E000140290911502859759F4209126023091BA
:1005F000270280911202909113022817390789F07F
:100600008091140290911502859781F4209128021F
:100610003091290280911202909113022817390714
:1006200029F4109203021092020263C08091140216
:1006300090911502892B09F45CC08091140290916D
:100640001502029761F420911602309117028091F1
:100650001202909113022817390709F444C08091BF
:10066000140290911502029759F4209118023091CA
:10067000190280911202909113022817390799F1FB
:100680008091140290911502029759F420911A0258
:1006900030911B02809112029091130228173907A2
:1006A00011F18091140290911502029759F4209152
:1006B0001C0230911D0280911202909113022817A2
:1006C000390789F08091140290911502029789F4FC
:1006D00020911E0230911F0280911202909113020C
:1006E0002817390731F481E090E09093030280935A
:1006F000020280911202909113024C9739F481E02A
:1007000090E090930102809300020AC0809112024F
:1007100090911302019721F41092010210920002AD
:10072000609112027091130280911402909115024F
:1007300047E050E00E94BF018091020290910302C5
:10074000019731F4809114029091150201960BC02B
:100750008091020290910302892B49F48091140246
:100760009091150201979093150280931402809145
:10077000000290910102892B31F480911202909134
:10078000130201960BC08091000290910102019723
:1007900049F48091120290911302019790931302F1
:1007A00080931202609112027091130280911402E0
:1007B0009091150240E050E00E94BF0120910A0292
:1007C00030910B0280910802909109022817390795
:1007D00059F4209106023091070280910402909111
:1007E00005022817390751F10E948C0260910A0214
:1007F00070910B0221E030E045E050E081E090E0B4
:100800000E943B02609106027091070221E030E0F5
:1008100045E050E082E090E00E943B0280910A02B5
:1008200090910B0290930902809308028091060236
:10083000909107029093050280930402FF91EF913B
:10084000BF91AF919F918F917F916F915F914F91E8
:100850003F912F910F900BBE0F900FBE0F901F90E6
:1008600018950E94B40080E895E20E94C40064E0FC
:1008700070E087E090E00E949B0140E050E068E07B
:1008800070E080E190E00E94BF0160910A027091E7
:100890000B0221E030E045E050E081E090E00E9472
:1008A0003B0280910A0290910B029093090280937F
:1008B0000802609106027091070221E030E045E0F5
:1008C00050E082E090E00E943B028091060290910D
:1008D0000702909305028093040281E090E00E9459
:1008E00095007894FFCFAA1BBB1B51E107C0AA1F3C
:1008F000BB1FA617B70710F0A61BB70B881F991FC1
:100900005A95A9F780959095BC01CD010895A1E273
:100910001A2EAA1BBB1BFD010DC0AA1FBB1FEE1F79
:10092000FF1FA217B307E407F50720F0A21BB30BC4
:10093000E40BF50B661F771F881F991F1A9469F740
:1009400060957095809590959B01AC01BD01CF019C
:060950000895F894FFCFAA
:04095600010001009B
:00000001FF
