:100000000C9472000C9493000C9493000C94930045
:100010000C9493000C9493000C9493000C94930014
:100020000C9493000C9493000C9493000C94930004
:100030000C9493000C9493000C9493000C949300F4
:100040000C9493000C9493000C9493000C949300E4
:100050000C9493000C9493000C9493000C949300D4
:100060000C9493000C9493000C9493000C949300C4
:100070000C9493000C9493000C9493000C949300B4
:100080000C94BF030C9493000C9493000C94930075
:100090000C9417010C9493000C9493000C9493000F
:1000A0000C9493000C9493000C9493000C94930084
:1000B0000C9493000C9493000C9493000C94930074
:1000C0000C9493000C9493000C9493000C94930064
:1000D0000C9493000C9493000C9493000C94930054
:1000E0000C94930011241FBECFEFD1E2DEBFCDBF31
:1000F00000E00CBF12E0A0E0B2E0E6E9FCE000E0C6
:100100000BBF02C007900D92A630B107D9F722E0CD
:10011000A6E0B2E001C01D92A333B207E1F70E944E
:10012000D1050C9449060C94000010929000E1E96E
:10013000F0E01082109292002081256020832081BF
:100140002860208322E0209371002AE136E0AC0190
:10015000429FC001439F900D529F900D1124909398
:1001600099008093980008951092C50087E68093C7
:10017000C400E1ECF0E088E18083808180688083C6
:1001800086E08093C20008959C01990F440B550BA3
:1001900060E472E48FE090E00E942706215031096C
:1001A0003093CD002093CC00E9ECF0E088E180832F
:1001B00080818068808386E08093CA007894089567
:1001C0009091C80095FFFCCF8093CE008091C8002D
:1001D00086FFFCCF08958091C00087FF03C0809107
:1001E000C60008958FEF08959091C00095FFFCCF51
:1001F0008093C6008091C00086FFFCCF0895CF9306
:10020000DF93EC018991882319F00E94F400FACF62
:10021000DF91CF910895CF93DF93EC0189918823EB
:1002200019F00E94E000FACFDF91CF9108951F925C
:100230000F920FB60F9211240BB60F922F933F938C
:100240004F935F936F937F938F939F93AF93BF93DE
:10025000EF93FF938091CE00843529F4109213021E
:100260001092120255C080911202909113029C01CB
:100270002F5F3F4F30931302209312022091CE0044
:10028000FC01E05DFD4F20838091120290911302EA
:100290000397F1F52091310280913202237090E0B2
:1002A000922B909311028093100280913002209142
:1002B00031028F7030E4839FC0011124269526956A
:1002C000822B90930F0280930E02209110023091A6
:1002D00011024EE1429FC001439F900D11242FEF68
:1002E00033E0B9010E94130670930D0260930C0273
:1002F00060910E0270910F02469FC001479F900DC2
:100300001124B9010E941306709309026093080238
:10031000FF91EF91BF91AF919F918F917F916F91DD
:100320005F914F913F912F910F900BBE0F900FBE99
:100330000F901F901895CF93DF93C82FD62F86E28A
:100340000E94E00088E70E94E0008D2F0E94E000FC
:1003500086E20E94E00082E70E94E00080E00E94C6
:10036000E00081E00E94E0008CE10E94E00088E271
:100370000E94E0008C2FDF91CF910C94E000FF925F
:100380000F931F93CF93DF938C01EB01F42E86E242
:100390000E94E00082E70E94E000802F0E94E000BF
:1003A0008C2F0E94E00081E00E94E00081E00E942A
:1003B000E0008F2D0E94E00010931B0200931A02B0
:1003C000D0931902C0931802DF91CF911F910F9122
:1003D000FF900895DF92EF92FF920F931F93CF93B8
:1003E000DF938C01EB01D42EE22E019719F066E227
:1003F000F62E02C0FF24F39486E20E94E00082E71A
:100400000E94E0008F2D0E94E0008C2F0E94E000EF
:100410008D2D0E94E0008E2D0E94E00084E00E945D
:10042000E00080E090E00130110579F49E01280F92
:10043000391FFC01EE0FFF1FE45EFD4F3183208367
:1004400001968530910591F70EC09C012C0F3D1F40
:10045000FC01EE0FFF1FEA5DFD4F31832083019603
:100460008530910591F7DF91CF911F910F91FF900A
:10047000EF90DF900895DF92EF92FF920F931F931A
:10048000CF93DF938C01EB01D42EE22E019719F06C
:1004900066E2F62E02C0FF24F39486E20E94E0009A
:1004A00082E70E94E0008F2D0E94E0008C2F0E94C6
:1004B000E0008D2D0E94E0008E2D0E94E00084E07F
:1004C0000E94E00080E090E00130110579F49C0189
:1004D0002C0F3D1FFC01EE0FFF1FE45EFD4F31832B
:1004E000208301968530910591F70EC09C012C0F59
:1004F0003D1FFC01EE0FFF1FEA5DFD4F318320839E
:1005000001968530910591F7DF91CF911F910F9161
:10051000FF90EF90DF90089586E20E94E00082E76E
:100520000E94E00081E00E94E00081E00E94E00083
:100530008CE10E94E00081E00E94E00087E00C94E2
:10054000E0001F93CF93DF93182FD62FC42F86E29E
:100550000E94E00082E70E94E000812F0E94E000FC
:100560008D2F0E94E00081E00E94E00081E00E9467
:10057000E0008C2FDF91CF911F910C94E00049E0B7
:1005800050E06CE070E08BE090E00E94A10249E056
:1005900050E06DE070E08BE090E00E94A10249E045
:1005A00050E06EE070E08BE090E00E94A10249E034
:1005B00050E06FE070E08BE090E00E94A10249E023
:1005C00050E060E170E08BE090E00E94A10249E021
:1005D00050E061E170E08BE090E00E94A10249E010
:1005E00050E06CE070E08CE090E00E94A10249E0F5
:1005F00050E06CE070E08DE090E00E94A10249E0E4
:1006000050E06EE070E08CE090E00E94A10249E0D2
:1006100050E06CE070E080E190E00E94A10249E0CF
:1006200050E06DE070E080E190E00E94A10249E0BE
:1006300050E06EE070E080E190E00E94A10249E0AD
:1006400050E06FE070E080E190E00E94A10249E09C
:1006500050E060E170E080E190E00E94A10249E09A
:1006600050E061E170E080E190E00E94A10249E089
:1006700050E06CE070E083E190E00E94A10249E06C
:1006800050E06DE070E083E190E00E94A10249E05B
:1006900050E06EE070E083E190E00E94A10249E04A
:1006A00050E06FE070E083E190E00E94A10249E039
:1006B00050E060E170E083E190E00E94A10249E037
:1006C00050E061E170E083E190E00E94A10249E026
:1006D00050E06CE070E084E190E00E94A10249E00B
:1006E00050E06CE070E085E190E00E94A10249E0FA
:1006F00050E06DE070E085E190E00E94A10249E0E9
:1007000050E06EE070E085E190E00E94A10249E0D7
:1007100050E06CE070E086E190E00E94A10249E0C8
:1007200050E06CE070E087E190E00E94A10249E0B7
:1007300050E06DE070E087E190E00E94A10249E0A6
:1007400050E06EE070E087E190E00E94A10249E095
:1007500050E06FE070E087E190E00E94A10249E084
:1007600050E060E170E087E190E00E94A10249E082
:1007700050E061E170E087E190E00C94A1021F92EB
:100780000F920FB60F9211240BB60F922F933F9337
:100790004F935F936F937F938F939F93AF93BF9389
:1007A000EF93FF9380911A0290911B02879789F52E
:1007B00080911602909117020196909317028093F0
:1007C000160280911602909117028230910579F0FD
:1007D00083309105A9F0019709F02BC140910402E3
:1007E0005091050260E070E080E090E092C040919E
:1007F00004025091050260E070E082E090E089C060
:10080000409104025091050260E070E084E090E0C5
:10081000ACC080911A0290911B02859761F42091DF
:100820002602309127028091180290911902281710
:10083000390709F444C080911A0290911B028597F0
:1008400059F4209128023091290280911802909148
:1008500019022817390799F180911A0290911B0209
:10086000859759F420912A0230912B028091180229
:10087000909119022817390711F180911A0290916D
:100880001B02859759F420912C0230912D02809102
:100890001802909119022817390789F080911A02DD
:1008A00090911B02859781F420912E0230912F02A6
:1008B00080911802909119022817390729F4109293
:1008C000030210920202B5C080911A0290911B029D
:1008D000892B09F052C08091140290911502019663
:1008E0009093150280931402809114029091150246
:1008F0008230910549F18330910579F1019709F032
:1009000098C0409104025091050260E070E087E2D7
:1009100090E00E94A10260911802709119028091EA
:100920001A0290911B0247E050E00E94BF0185E14E
:1009300090E090931B0280931A028EE090E09093D7
:1009400019028093180275C040910402509105026B
:1009500060E070E085E290E0DCCF409104025091CD
:10096000050260E070E083E290E00E94A1020E9434
:10097000BF0280E090E00E94490680911A029091A7
:100980001B02029761F420911C0230911D0280919C
:100990001802909119022817390709F444C0809170
:1009A0001A0290911B02029759F420911E02309175
:1009B0001F0280911802909119022817390799F1A6
:1009C00080911A0290911B02029759F42091200203
:1009D000309121028091180290911902281739074D
:1009E00011F180911A0290911B02029759F4209103
:1009F0002202309123028091180290911902281747
:100A0000390789F080911A0290911B02029789F4AC
:100A100020912402309125028091180290911902B0
:100A20002817390731F481E090E090930302809316
:100A3000020280911802909119024C9739F481E0DA
:100A400090E090930102809300020AC08091180206
:100A500090911902019721F4109201021092000264
:100A6000609118027091190280911A0290911B02F4
:100A700047E050E00E94BF01809102029091030282
:100A8000019731F480911A0290911B0201960BC0DC
:100A90008091020290910302892B49F480911A02FD
:100AA00090911B02019790931B0280931A028091F0
:100AB000000290910102892B31F4809118029091EB
:100AC000190201960BC080910002909101020197DA
:100AD00049F480911802909119020197909319029C
:100AE00080931802609118027091190280911A0285
:100AF00090911B0240E050E00E94BF0120910C0247
:100B000030910D0280910A0290910B02281739074B
:100B100059F42091080230910902809106029091C7
:100B200007022817390751F10E948C0260910C02CC
:100B300070910D0221E030E045E050E081E090E06E
:100B40000E943B02609108027091090221E030E0AE
:100B500045E050E082E090E00E943B0280910C0270
:100B600090910D0290930B0280930A0280910802EB
:100B7000909109029093070280930602FF91EF91F2
:100B8000BF91AF919F918F917F916F915F914F91A5
:100B90003F912F910F900BBE0F900FBE0F901F90A3
:100BA00018950E94B40080E895E20E94C40064E0B9
:100BB00070E087E090E00E949B0140E050E068E038
:100BC00070E084E190E00E94BF0160910C0270919E
:100BD0000D0221E030E045E050E081E090E00E942D
:100BE0003B0280910C0290910D0290930B02809336
:100BF0000A02609108027091090221E030E045E0AC
:100C000050E082E090E00E943B02809108029091C7
:100C10000902909307028093060281E090E00E940F
:100C200095007894FFCFAA1BBB1B51E107C0AA1FF8
:100C3000BB1FA617B70710F0A61BB70B881F991F7D
:100C40005A95A9F780959095BC01CD010895A1E230
:100C50001A2EAA1BBB1BFD010DC0AA1FBB1FEE1F36
:100C6000FF1FA217B307E407F50720F0A21BB30B81
:100C7000E40BF50B661F771F881F991F1A9469F7FD
:100C800060957095809590959B01AC01BD01CF0159
:060C90000895F894FFCF67
:060C96000100010009004D
:00000001FF
